{
  "_format": "hh-sol-artifact-1",
  "contractName": "KiteBondScanPayments",
  "sourceName": "contracts/KiteBondScanPayments.sol",
  "abi": [
    {
      "inputs": [
        {
          "internalType": "address",
          "name": "_paymentToken",
          "type": "address"
        },
        {
          "internalType": "address",
          "name": "_treasury",
          "type": "address"
        }
      ],
      "stateMutability": "nonpayable",
      "type": "constructor"
    },
    {
      "inputs": [
        {
          "internalType": "address",
          "name": "owner",
          "type": "address"
        }
      ],
      "name": "OwnableInvalidOwner",
      "type": "error"
    },
    {
      "inputs": [
        {
          "internalType": "address",
          "name": "account",
          "type": "address"
        }
      ],
      "name": "OwnableUnauthorizedAccount",
      "type": "error"
    },
    {
      "inputs": [],
      "name": "ReentrancyGuardReentrantCall",
      "type": "error"
    },
    {
      "anonymous": false,
      "inputs": [
        {
          "indexed": true,
          "internalType": "address",
          "name": "user",
          "type": "address"
        },
        {
          "indexed": true,
          "internalType": "bytes32",
          "name": "packageNameHash",
          "type": "bytes32"
        },
        {
          "indexed": false,
          "internalType": "bytes32",
          "name": "versionHash",
          "type": "bytes32"
        },
        {
          "indexed": false,
          "internalType": "enum KiteBondScanPayments.ScanDepth",
          "name": "depth",
          "type": "uint8"
        },
        {
          "indexed": false,
          "internalType": "uint256",
          "name": "amountPaid",
          "type": "uint256"
        },
        {
          "indexed": false,
          "internalType": "bytes32",
          "name": "scanId",
          "type": "bytes32"
        },
        {
          "indexed": false,
          "internalType": "uint256",
          "name": "timestamp",
          "type": "uint256"
        }
      ],
      "name": "InstantScanAuthorized",
      "type": "event"
    },
    {
      "anonymous": false,
      "inputs": [
        {
          "indexed": true,
          "internalType": "address",
          "name": "user",
          "type": "address"
        },
        {
          "indexed": true,
          "internalType": "bytes32",
          "name": "scanId",
          "type": "bytes32"
        },
        {
          "indexed": false,
          "internalType": "bytes32",
          "name": "reportHash",
          "type": "bytes32"
        },
        {
          "indexed": false,
          "internalType": "uint256",
          "name": "timestamp",
          "type": "uint256"
        }
      ],
      "name": "InstantScanProofAnchored",
      "type": "event"
    },
    {
      "anonymous": false,
      "inputs": [
        {
          "indexed": true,
          "internalType": "address",
          "name": "previousOwner",
          "type": "address"
        },
        {
          "indexed": true,
          "internalType": "address",
          "name": "newOwner",
          "type": "address"
        }
      ],
      "name": "OwnershipTransferred",
      "type": "event"
    },
    {
      "inputs": [
        {
          "internalType": "bytes32",
          "name": "scanId",
          "type": "bytes32"
        },
        {
          "internalType": "bytes32",
          "name": "reportHash",
          "type": "bytes32"
        }
      ],
      "name": "anchorProof",
      "outputs": [],
      "stateMutability": "nonpayable",
      "type": "function"
    },
    {
      "inputs": [
        {
          "internalType": "bytes32",
          "name": "packageNameHash",
          "type": "bytes32"
        },
        {
          "internalType": "bytes32",
          "name": "versionHash",
          "type": "bytes32"
        },
        {
          "internalType": "enum KiteBondScanPayments.ScanDepth",
          "name": "depth",
          "type": "uint8"
        },
        {
          "internalType": "bytes32",
          "name": "scanId",
          "type": "bytes32"
        }
      ],
      "name": "authorizeScan",
      "outputs": [],
      "stateMutability": "nonpayable",
      "type": "function"
    },
    {
      "inputs": [],
      "name": "deepScanPrice",
      "outputs": [
        {
          "internalType": "uint256",
          "name": "",
          "type": "uint256"
        }
      ],
      "stateMutability": "view",
      "type": "function"
    },
    {
      "inputs": [],
      "name": "owner",
      "outputs": [
        {
          "internalType": "address",
          "name": "",
          "type": "address"
        }
      ],
      "stateMutability": "view",
      "type": "function"
    },
    {
      "inputs": [],
      "name": "paymentToken",
      "outputs": [
        {
          "internalType": "contract IERC20",
          "name": "",
          "type": "address"
        }
      ],
      "stateMutability": "view",
      "type": "function"
    },
    {
      "inputs": [],
      "name": "quickScanPrice",
      "outputs": [
        {
          "internalType": "uint256",
          "name": "",
          "type": "uint256"
        }
      ],
      "stateMutability": "view",
      "type": "function"
    },
    {
      "inputs": [],
      "name": "renounceOwnership",
      "outputs": [],
      "stateMutability": "nonpayable",
      "type": "function"
    },
    {
      "inputs": [
        {
          "internalType": "bytes32",
          "name": "",
          "type": "bytes32"
        }
      ],
      "name": "scanAuthorized",
      "outputs": [
        {
          "internalType": "bool",
          "name": "",
          "type": "bool"
        }
      ],
      "stateMutability": "view",
      "type": "function"
    },
    {
      "inputs": [
        {
          "internalType": "uint256",
          "name": "quick",
          "type": "uint256"
        },
        {
          "internalType": "uint256",
          "name": "standard",
          "type": "uint256"
        },
        {
          "internalType": "uint256",
          "name": "deep",
          "type": "uint256"
        }
      ],
      "name": "setPrices",
      "outputs": [],
      "stateMutability": "nonpayable",
      "type": "function"
    },
    {
      "inputs": [
        {
          "internalType": "address",
          "name": "_treasury",
          "type": "address"
        }
      ],
      "name": "setTreasury",
      "outputs": [],
      "stateMutability": "nonpayable",
      "type": "function"
    },
    {
      "inputs": [],
      "name": "standardScanPrice",
      "outputs": [
        {
          "internalType": "uint256",
          "name": "",
          "type": "uint256"
        }
      ],
      "stateMutability": "view",
      "type": "function"
    },
    {
      "inputs": [
        {
          "internalType": "address",
          "name": "newOwner",
          "type": "address"
        }
      ],
      "name": "transferOwnership",
      "outputs": [],
      "stateMutability": "nonpayable",
      "type": "function"
    },
    {
      "inputs": [],
      "name": "treasury",
      "outputs": [
        {
          "internalType": "address",
          "name": "",
          "type": "address"
        }
      ],
      "stateMutability": "view",
      "type": "function"
    },
    {
      "inputs": [
        {
          "internalType": "address",
          "name": "",
          "type": "address"
        }
      ],
      "name": "usedFreeScan",
      "outputs": [
        {
          "internalType": "bool",
          "name": "",
          "type": "bool"
        }
      ],
      "stateMutability": "view",
      "type": "function"
    },
    {
      "inputs": [
        {
          "internalType": "uint256",
          "name": "amount",
          "type": "uint256"
        }
      ],
      "name": "withdraw",
      "outputs": [],
      "stateMutability": "nonpayable",
      "type": "function"
    }
  ],
  "bytecode": "0x60a0346101ad57610a9d90601f38839003908101601f19168201906001600160401b038211838310176101b257808391604095869485528339810103126101ad57610055602061004e836101c8565b92016101c8565b60017f9b779b17422d0df92223018b32b4d1fa46e071723d6817e2486d003becc55f005533156101955760008054336001600160a01b03198083168217845586519590946001600160a01b03949093859391908416907f8be0079c531659141344cd1fd0a4f28419497f9722a3daafe3b4186f6b6457e09080a36000600255670de0b6b3a76400006003556729a2241af62c00006004551693841561016357501691821561012c576080526001541617600155516108c090816101dd823960805181818161036d015281816106ba01526107360152f35b835162461bcd60e51b815260206004820152601060248201526f496e76616c696420747265617375727960801b6044820152606490fd5b62461bcd60e51b815260206004820152600d60248201526c24b73b30b634b2103a37b5b2b760991b6044820152606490fd5b8251631e4fbdf760e01b815260006004820152602490fd5b600080fd5b634e487b7160e01b600052604160045260246000fd5b51906001600160a01b03821682036101ad5756fe6040608081526004908136101561001557600080fd5b600091823560e01c80632e1a7d4d146106e95780633013ce29146106a5578063388ffee01461068657806361d027b31461065d578063715018a6146106005780638a3eb0c11461052a5780638da5cb5b14610502578063a88fe42d146104d4578063cec61170146104b7578063d92b90e614610498578063dcf4b64d1461024d578063e13135c91461020f578063f0f4426014610183578063f2fde38b146100f55763f74ad134146100c657600080fd5b346100f15760203660031901126100f1578160209360ff923581526006855220541690519015158152f35b8280fd5b5090346100f15760203660031901126100f1576001600160a01b0382358181169391929084900361017f5761012861078c565b831561016957505082546001600160a01b0319811683178455167f8be0079c531659141344cd1fd0a4f28419497f9722a3daafe3b4186f6b6457e08380a380f35b51631e4fbdf760e01b8152908101849052602490fd5b8480fd5b50346100f15760203660031901126100f15780356001600160a01b038116929083900361020b576101b261078c565b82156101d55750506bffffffffffffffffffffffff60a01b600154161760015580f35b906020606492519162461bcd60e51b8352820152601060248201526f496e76616c696420747265617375727960801b6044820152fd5b8380fd5b50346100f15760203660031901126100f157356001600160a01b038116908190036100f157818360ff92602095526005855220541690519015158152f35b508290346104945760803660031901126104945760443560038110156100f157606435917f9b779b17422d0df92223018b32b4d1fa46e071723d6817e2486d003becc55f0092600284541461048557600284558015610453578085526020926006845260ff87872054166104105785966102c68261080d565b918015806103fb575b6103de575b82610335575b8360019852600686528189208860ff198254161790558151956024358752860152840152606083015242608083015235907f9f33e79a395d8dabf5a8037a1003e13c271cc4836e971a59b69f19a2a5a839e060a03392a35580f35b60015482516323b872dd60e01b815233878201526001600160a01b039182166024820152604481018590529887918a916064918391907f0000000000000000000000000000000000000000000000000000000000000000165af19788156103d4576001986103a7575b508897506102da565b6103c690873d89116103cd575b6103be81836107b8565b8101906107f0565b508961039e565b503d6103b4565b82513d8b823e3d90fd5b33885260058652818820805460ff191660011790558792506102d4565b503388526005865260ff8289205416156102cf565b865162461bcd60e51b8152808401859052601760248201527f5363616e20616c726561647920617574686f72697a65640000000000000000006044820152606490fd5b855162461bcd60e51b8152602081840152600c60248201526b24b73b30b634b21039b1b0b760a11b6044820152606490fd5b508451633ee5aeb560e01b8152fd5b5080fd5b5050346104945781600319360112610494576020906002549051908152f35b50346100f157826003193601126100f15760209250549051908152f35b838234610494576060366003190112610494576104ef61078c565b8035600255602435600355604435905580f35b505034610494578160031936011261049457905490516001600160a01b039091168152602090f35b50346100f157816003193601126100f15780359160243591838552600660205260ff8286205416156105c85782156105905750807f18a0cce37d9b827f21abe74503d90d2c20a26b0732e5545f59222460bbca87fb91519283524260208401523392a380f35b6020606492519162461bcd60e51b83528201526013602482015272092dcecc2d8d2c840e4cae0dee4e840d0c2e6d606b1b6044820152fd5b6020606492519162461bcd60e51b8352820152601360248201527214d8d85b881b9bdd08185d5d1a1bdc9a5e9959606a1b6044820152fd5b833461065a578060031936011261065a5761061961078c565b80546001600160a01b03198116825581906001600160a01b03167f8be0079c531659141344cd1fd0a4f28419497f9722a3daafe3b4186f6b6457e08280a380f35b80fd5b50503461049457816003193601126104945760015490516001600160a01b039091168152602090f35b5050346104945781600319360112610494576020906003549051908152f35b505034610494578160031936011261049457517f00000000000000000000000000000000000000000000000000000000000000006001600160a01b03168152602090f35b5090346100f15760203660031901126100f15761070461078c565b8254815163a9059cbb60e01b81526001600160a01b0391821681850152923560248401526020908390604490829087907f0000000000000000000000000000000000000000000000000000000000000000165af19081156107835750610768575080f35b61077f9060203d81116103cd576103be81836107b8565b5080f35b513d84823e3d90fd5b6000546001600160a01b031633036107a057565b60405163118cdaa760e01b8152336004820152602490fd5b90601f8019910116810190811067ffffffffffffffff8211176107da57604052565b634e487b7160e01b600052604160045260246000fd5b90816020910312610808575180151581036108085790565b600080fd5b600381101561087457801561086d5760018114610866576002146108605760405162461bcd60e51b815260206004820152600d60248201526c092dcecc2d8d2c840c8cae0e8d609b1b6044820152606490fd5b60045490565b5060035490565b5060025490565b634e487b7160e01b600052602160045260246000fdfea2646970667358221220922c36f76282aff07f626a50a12774737dde06776d4675d64bd445afc8c3c05364736f6c63430008140033",
  "linkReferences": {},
  "deployedLinkReferences": {}
}