{
  "_format": "hh-sol-artifact-1",
  "contractName": "KiteBondHuntRegistry",
  "sourceName": "contracts/KiteBondHuntRegistry.sol",
  "abi": [
    {
      "inputs": [
        {
          "internalType": "address",
          "name": "_paymentToken",
          "type": "address"
        },
        {
          "internalType": "address",
          "name": "_treasury",
          "type": "address"
        },
        {
          "internalType": "address",
          "name": "_verifier",
          "type": "address"
        }
      ],
      "stateMutability": "nonpayable",
      "type": "constructor"
    },
    {
      "inputs": [
        {
          "internalType": "address",
          "name": "owner",
          "type": "address"
        }
      ],
      "name": "OwnableInvalidOwner",
      "type": "error"
    },
    {
      "inputs": [
        {
          "internalType": "address",
          "name": "account",
          "type": "address"
        }
      ],
      "name": "OwnableUnauthorizedAccount",
      "type": "error"
    },
    {
      "inputs": [],
      "name": "ReentrancyGuardReentrantCall",
      "type": "error"
    },
    {
      "anonymous": false,
      "inputs": [
        {
          "indexed": true,
          "internalType": "uint256",
          "name": "huntId",
          "type": "uint256"
        },
        {
          "indexed": true,
          "internalType": "address",
          "name": "agent",
          "type": "address"
        },
        {
          "indexed": false,
          "internalType": "uint256",
          "name": "stakeAmount",
          "type": "uint256"
        },
        {
          "indexed": false,
          "internalType": "uint256",
          "name": "timestamp",
          "type": "uint256"
        }
      ],
      "name": "AgentStaked",
      "type": "event"
    },
    {
      "anonymous": false,
      "inputs": [
        {
          "indexed": true,
          "internalType": "uint256",
          "name": "huntId",
          "type": "uint256"
        },
        {
          "indexed": false,
          "internalType": "uint256",
          "name": "timestamp",
          "type": "uint256"
        }
      ],
      "name": "HuntCancelled",
      "type": "event"
    },
    {
      "anonymous": false,
      "inputs": [
        {
          "indexed": true,
          "internalType": "uint256",
          "name": "huntId",
          "type": "uint256"
        },
        {
          "indexed": true,
          "internalType": "address",
          "name": "creator",
          "type": "address"
        },
        {
          "indexed": false,
          "internalType": "bytes32",
          "name": "packageNameHash",
          "type": "bytes32"
        },
        {
          "indexed": false,
          "internalType": "uint256",
          "name": "rewardAmount",
          "type": "uint256"
        },
        {
          "indexed": false,
          "internalType": "uint256",
          "name": "stakeRequired",
          "type": "uint256"
        },
        {
          "indexed": false,
          "internalType": "uint256",
          "name": "deadline",
          "type": "uint256"
        },
        {
          "indexed": false,
          "internalType": "uint256",
          "name": "timestamp",
          "type": "uint256"
        }
      ],
      "name": "HuntCreated",
      "type": "event"
    },
    {
      "anonymous": false,
      "inputs": [
        {
          "indexed": true,
          "internalType": "uint256",
          "name": "huntId",
          "type": "uint256"
        },
        {
          "indexed": false,
          "internalType": "uint256",
          "name": "timestamp",
          "type": "uint256"
        }
      ],
      "name": "HuntExpired",
      "type": "event"
    },
    {
      "anonymous": false,
      "inputs": [
        {
          "indexed": true,
          "internalType": "uint256",
          "name": "huntId",
          "type": "uint256"
        },
        {
          "indexed": false,
          "internalType": "bool",
          "name": "hasWinner",
          "type": "bool"
        },
        {
          "indexed": false,
          "internalType": "uint256",
          "name": "timestamp",
          "type": "uint256"
        }
      ],
      "name": "HuntSettled",
      "type": "event"
    },
    {
      "anonymous": false,
      "inputs": [
        {
          "indexed": true,
          "internalType": "address",
          "name": "previousOwner",
          "type": "address"
        },
        {
          "indexed": true,
          "internalType": "address",
          "name": "newOwner",
          "type": "address"
        }
      ],
      "name": "OwnershipTransferred",
      "type": "event"
    },
    {
      "anonymous": false,
      "inputs": [
        {
          "indexed": true,
          "internalType": "uint256",
          "name": "huntId",
          "type": "uint256"
        },
        {
          "indexed": false,
          "internalType": "bytes32",
          "name": "proofHash",
          "type": "bytes32"
        },
        {
          "indexed": false,
          "internalType": "uint256",
          "name": "timestamp",
          "type": "uint256"
        }
      ],
      "name": "ProofRecorded",
      "type": "event"
    },
    {
      "anonymous": false,
      "inputs": [
        {
          "indexed": true,
          "internalType": "uint256",
          "name": "huntId",
          "type": "uint256"
        },
        {
          "indexed": true,
          "internalType": "address",
          "name": "agent",
          "type": "address"
        },
        {
          "indexed": false,
          "internalType": "bytes32",
          "name": "reportHash",
          "type": "bytes32"
        },
        {
          "indexed": false,
          "internalType": "uint256",
          "name": "submissionIndex",
          "type": "uint256"
        },
        {
          "indexed": false,
          "internalType": "uint256",
          "name": "timestamp",
          "type": "uint256"
        }
      ],
      "name": "ReportSubmitted",
      "type": "event"
    },
    {
      "anonymous": false,
      "inputs": [
        {
          "indexed": true,
          "internalType": "uint256",
          "name": "huntId",
          "type": "uint256"
        },
        {
          "indexed": false,
          "internalType": "uint256",
          "name": "amount",
          "type": "uint256"
        },
        {
          "indexed": false,
          "internalType": "uint256",
          "name": "timestamp",
          "type": "uint256"
        }
      ],
      "name": "RewardLocked",
      "type": "event"
    },
    {
      "anonymous": false,
      "inputs": [
        {
          "indexed": true,
          "internalType": "uint256",
          "name": "huntId",
          "type": "uint256"
        },
        {
          "indexed": true,
          "internalType": "address",
          "name": "winner",
          "type": "address"
        },
        {
          "indexed": false,
          "internalType": "uint256",
          "name": "amount",
          "type": "uint256"
        },
        {
          "indexed": false,
          "internalType": "uint256",
          "name": "timestamp",
          "type": "uint256"
        }
      ],
      "name": "RewardPaid",
      "type": "event"
    },
    {
      "anonymous": false,
      "inputs": [
        {
          "indexed": true,
          "internalType": "uint256",
          "name": "huntId",
          "type": "uint256"
        },
        {
          "indexed": true,
          "internalType": "address",
          "name": "agent",
          "type": "address"
        },
        {
          "indexed": false,
          "internalType": "uint256",
          "name": "amount",
          "type": "uint256"
        },
        {
          "indexed": false,
          "internalType": "uint256",
          "name": "timestamp",
          "type": "uint256"
        }
      ],
      "name": "StakeReturned",
      "type": "event"
    },
    {
      "anonymous": false,
      "inputs": [
        {
          "indexed": true,
          "internalType": "uint256",
          "name": "huntId",
          "type": "uint256"
        },
        {
          "indexed": true,
          "internalType": "address",
          "name": "agent",
          "type": "address"
        },
        {
          "indexed": false,
          "internalType": "uint256",
          "name": "amount",
          "type": "uint256"
        },
        {
          "indexed": false,
          "internalType": "address",
          "name": "treasury",
          "type": "address"
        },
        {
          "indexed": false,
          "internalType": "uint256",
          "name": "timestamp",
          "type": "uint256"
        }
      ],
      "name": "StakeSlashed",
      "type": "event"
    },
    {
      "anonymous": false,
      "inputs": [
        {
          "indexed": true,
          "internalType": "uint256",
          "name": "huntId",
          "type": "uint256"
        },
        {
          "indexed": false,
          "internalType": "uint256",
          "name": "submissionIndex",
          "type": "uint256"
        },
        {
          "indexed": false,
          "internalType": "address",
          "name": "agent",
          "type": "address"
        },
        {
          "indexed": false,
          "internalType": "bool",
          "name": "valid",
          "type": "bool"
        },
        {
          "indexed": false,
          "internalType": "bytes32",
          "name": "verificationHash",
          "type": "bytes32"
        },
        {
          "indexed": false,
          "internalType": "uint256",
          "name": "timestamp",
          "type": "uint256"
        }
      ],
      "name": "SubmissionVerified",
      "type": "event"
    },
    {
      "anonymous": false,
      "inputs": [
        {
          "indexed": true,
          "internalType": "uint256",
          "name": "huntId",
          "type": "uint256"
        },
        {
          "indexed": true,
          "internalType": "address",
          "name": "winner",
          "type": "address"
        },
        {
          "indexed": false,
          "internalType": "uint256",
          "name": "submissionIndex",
          "type": "uint256"
        },
        {
          "indexed": false,
          "internalType": "uint256",
          "name": "timestamp",
          "type": "uint256"
        }
      ],
      "name": "WinnerSelected",
      "type": "event"
    },
    {
      "inputs": [],
      "name": "MAX_DEADLINE",
      "outputs": [
        {
          "internalType": "uint256",
          "name": "",
          "type": "uint256"
        }
      ],
      "stateMutability": "view",
      "type": "function"
    },
    {
      "inputs": [
        {
          "internalType": "uint256",
          "name": "",
          "type": "uint256"
        },
        {
          "internalType": "address",
          "name": "",
          "type": "address"
        }
      ],
      "name": "agentStake",
      "outputs": [
        {
          "internalType": "uint256",
          "name": "",
          "type": "uint256"
        }
      ],
      "stateMutability": "view",
      "type": "function"
    },
    {
      "inputs": [
        {
          "internalType": "uint256",
          "name": "huntId",
          "type": "uint256"
        }
      ],
      "name": "cancelHunt",
      "outputs": [],
      "stateMutability": "nonpayable",
      "type": "function"
    },
    {
      "inputs": [
        {
          "internalType": "bytes32",
          "name": "packageNameHash",
          "type": "bytes32"
        },
        {
          "internalType": "bytes32",
          "name": "versionHash",
          "type": "bytes32"
        },
        {
          "internalType": "bytes32",
          "name": "termsHash",
          "type": "bytes32"
        },
        {
          "internalType": "uint8",
          "name": "scanDepth",
          "type": "uint8"
        },
        {
          "internalType": "uint256",
          "name": "rewardAmount",
          "type": "uint256"
        },
        {
          "internalType": "uint256",
          "name": "stakeRequired",
          "type": "uint256"
        },
        {
          "internalType": "uint256",
          "name": "deadlineDuration",
          "type": "uint256"
        }
      ],
      "name": "createHunt",
      "outputs": [
        {
          "internalType": "uint256",
          "name": "huntId",
          "type": "uint256"
        }
      ],
      "stateMutability": "nonpayable",
      "type": "function"
    },
    {
      "inputs": [
        {
          "internalType": "uint256",
          "name": "huntId",
          "type": "uint256"
        }
      ],
      "name": "expireHunt",
      "outputs": [],
      "stateMutability": "nonpayable",
      "type": "function"
    },
    {
      "inputs": [
        {
          "internalType": "uint256",
          "name": "huntId",
          "type": "uint256"
        }
      ],
      "name": "getHunt",
      "outputs": [
        {
          "components": [
            {
              "internalType": "uint256",
              "name": "id",
              "type": "uint256"
            },
            {
              "internalType": "address",
              "name": "creator",
              "type": "address"
            },
            {
              "internalType": "bytes32",
              "name": "packageNameHash",
              "type": "bytes32"
            },
            {
              "internalType": "bytes32",
              "name": "versionHash",
              "type": "bytes32"
            },
            {
              "internalType": "bytes32",
              "name": "termsHash",
              "type": "bytes32"
            },
            {
              "internalType": "uint8",
              "name": "scanDepth",
              "type": "uint8"
            },
            {
              "internalType": "uint256",
              "name": "rewardAmount",
              "type": "uint256"
            },
            {
              "internalType": "uint256",
              "name": "stakeRequired",
              "type": "uint256"
            },
            {
              "internalType": "uint256",
              "name": "deadline",
              "type": "uint256"
            },
            {
              "internalType": "enum KiteBondHuntRegistry.HuntStatus",
              "name": "status",
              "type": "uint8"
            },
            {
              "internalType": "address",
              "name": "winner",
              "type": "address"
            },
            {
              "internalType": "uint256",
              "name": "createdAt",
              "type": "uint256"
            },
            {
              "internalType": "uint256",
              "name": "settledAt",
              "type": "uint256"
            }
          ],
          "internalType": "struct KiteBondHuntRegistry.Hunt",
          "name": "",
          "type": "tuple"
        }
      ],
      "stateMutability": "view",
      "type": "function"
    },
    {
      "inputs": [
        {
          "internalType": "uint256",
          "name": "huntId",
          "type": "uint256"
        }
      ],
      "name": "getSubmissionCount",
      "outputs": [
        {
          "internalType": "uint256",
          "name": "",
          "type": "uint256"
        }
      ],
      "stateMutability": "view",
      "type": "function"
    },
    {
      "inputs": [
        {
          "internalType": "uint256",
          "name": "huntId",
          "type": "uint256"
        }
      ],
      "name": "getSubmissions",
      "outputs": [
        {
          "components": [
            {
              "internalType": "uint256",
              "name": "huntId",
              "type": "uint256"
            },
            {
              "internalType": "address",
              "name": "agent",
              "type": "address"
            },
            {
              "internalType": "bytes32",
              "name": "reportHash",
              "type": "bytes32"
            },
            {
              "internalType": "enum KiteBondHuntRegistry.SubmissionStatus",
              "name": "status",
              "type": "uint8"
            },
            {
              "internalType": "uint256",
              "name": "submittedAt",
              "type": "uint256"
            }
          ],
          "internalType": "struct KiteBondHuntRegistry.Submission[]",
          "name": "",
          "type": "tuple[]"
        }
      ],
      "stateMutability": "view",
      "type": "function"
    },
    {
      "inputs": [
        {
          "internalType": "uint256",
          "name": "",
          "type": "uint256"
        },
        {
          "internalType": "address",
          "name": "",
          "type": "address"
        }
      ],
      "name": "hasStaked",
      "outputs": [
        {
          "internalType": "bool",
          "name": "",
          "type": "bool"
        }
      ],
      "stateMutability": "view",
      "type": "function"
    },
    {
      "inputs": [],
      "name": "huntCounter",
      "outputs": [
        {
          "internalType": "uint256",
          "name": "",
          "type": "uint256"
        }
      ],
      "stateMutability": "view",
      "type": "function"
    },
    {
      "inputs": [
        {
          "internalType": "uint256",
          "name": "",
          "type": "uint256"
        }
      ],
      "name": "hunts",
      "outputs": [
        {
          "internalType": "uint256",
          "name": "id",
          "type": "uint256"
        },
        {
          "internalType": "address",
          "name": "creator",
          "type": "address"
        },
        {
          "internalType": "bytes32",
          "name": "packageNameHash",
          "type": "bytes32"
        },
        {
          "internalType": "bytes32",
          "name": "versionHash",
          "type": "bytes32"
        },
        {
          "internalType": "bytes32",
          "name": "termsHash",
          "type": "bytes32"
        },
        {
          "internalType": "uint8",
          "name": "scanDepth",
          "type": "uint8"
        },
        {
          "internalType": "uint256",
          "name": "rewardAmount",
          "type": "uint256"
        },
        {
          "internalType": "uint256",
          "name": "stakeRequired",
          "type": "uint256"
        },
        {
          "internalType": "uint256",
          "name": "deadline",
          "type": "uint256"
        },
        {
          "internalType": "enum KiteBondHuntRegistry.HuntStatus",
          "name": "status",
          "type": "uint8"
        },
        {
          "internalType": "address",
          "name": "winner",
          "type": "address"
        },
        {
          "internalType": "uint256",
          "name": "createdAt",
          "type": "uint256"
        },
        {
          "internalType": "uint256",
          "name": "settledAt",
          "type": "uint256"
        }
      ],
      "stateMutability": "view",
      "type": "function"
    },
    {
      "inputs": [],
      "name": "owner",
      "outputs": [
        {
          "internalType": "address",
          "name": "",
          "type": "address"
        }
      ],
      "stateMutability": "view",
      "type": "function"
    },
    {
      "inputs": [],
      "name": "paymentToken",
      "outputs": [
        {
          "internalType": "contract IERC20",
          "name": "",
          "type": "address"
        }
      ],
      "stateMutability": "view",
      "type": "function"
    },
    {
      "inputs": [
        {
          "internalType": "uint256",
          "name": "huntId",
          "type": "uint256"
        }
      ],
      "name": "reclaimStake",
      "outputs": [],
      "stateMutability": "nonpayable",
      "type": "function"
    },
    {
      "inputs": [],
      "name": "renounceOwnership",
      "outputs": [],
      "stateMutability": "nonpayable",
      "type": "function"
    },
    {
      "inputs": [
        {
          "internalType": "uint256",
          "name": "huntId",
          "type": "uint256"
        },
        {
          "internalType": "uint256",
          "name": "submissionIndex",
          "type": "uint256"
        }
      ],
      "name": "selectWinner",
      "outputs": [],
      "stateMutability": "nonpayable",
      "type": "function"
    },
    {
      "inputs": [
        {
          "internalType": "address",
          "name": "_treasury",
          "type": "address"
        }
      ],
      "name": "setTreasury",
      "outputs": [],
      "stateMutability": "nonpayable",
      "type": "function"
    },
    {
      "inputs": [
        {
          "internalType": "address",
          "name": "_verifier",
          "type": "address"
        }
      ],
      "name": "setVerifier",
      "outputs": [],
      "stateMutability": "nonpayable",
      "type": "function"
    },
    {
      "inputs": [
        {
          "internalType": "uint256",
          "name": "huntId",
          "type": "uint256"
        }
      ],
      "name": "stakeAndJoin",
      "outputs": [],
      "stateMutability": "nonpayable",
      "type": "function"
    },
    {
      "inputs": [
        {
          "internalType": "uint256",
          "name": "",
          "type": "uint256"
        },
        {
          "internalType": "uint256",
          "name": "",
          "type": "uint256"
        }
      ],
      "name": "submissions",
      "outputs": [
        {
          "internalType": "uint256",
          "name": "huntId",
          "type": "uint256"
        },
        {
          "internalType": "address",
          "name": "agent",
          "type": "address"
        },
        {
          "internalType": "bytes32",
          "name": "reportHash",
          "type": "bytes32"
        },
        {
          "internalType": "enum KiteBondHuntRegistry.SubmissionStatus",
          "name": "status",
          "type": "uint8"
        },
        {
          "internalType": "uint256",
          "name": "submittedAt",
          "type": "uint256"
        }
      ],
      "stateMutability": "view",
      "type": "function"
    },
    {
      "inputs": [
        {
          "internalType": "uint256",
          "name": "huntId",
          "type": "uint256"
        },
        {
          "internalType": "bytes32",
          "name": "reportHash",
          "type": "bytes32"
        }
      ],
      "name": "submitReport",
      "outputs": [],
      "stateMutability": "nonpayable",
      "type": "function"
    },
    {
      "inputs": [
        {
          "internalType": "address",
          "name": "newOwner",
          "type": "address"
        }
      ],
      "name": "transferOwnership",
      "outputs": [],
      "stateMutability": "nonpayable",
      "type": "function"
    },
    {
      "inputs": [],
      "name": "treasury",
      "outputs": [
        {
          "internalType": "address",
          "name": "",
          "type": "address"
        }
      ],
      "stateMutability": "view",
      "type": "function"
    },
    {
      "inputs": [],
      "name": "verifier",
      "outputs": [
        {
          "internalType": "address",
          "name": "",
          "type": "address"
        }
      ],
      "stateMutability": "view",
      "type": "function"
    },
    {
      "inputs": [
        {
          "internalType": "uint256",
          "name": "huntId",
          "type": "uint256"
        },
        {
          "internalType": "uint256",
          "name": "submissionIndex",
          "type": "uint256"
        },
        {
          "internalType": "bool",
          "name": "valid",
          "type": "bool"
        },
        {
          "internalType": "bytes32",
          "name": "verificationHash",
          "type": "bytes32"
        }
      ],
      "name": "verifySubmission",
      "outputs": [],
      "stateMutability": "nonpayable",
      "type": "function"
    }
  ],
  "bytecode": "0x60a0346200021957601f6200264e38819003918201601f191683019291906001600160401b038411838510176200021e5781606092849260409687528339810103126200021957620000518162000234565b906200006d83620000656020840162000234565b920162000234565b60017f9b779b17422d0df92223018b32b4d1fa46e071723d6817e2486d003becc55f00553315620002015760008054336001600160a01b03198083168217845587519690956001600160a01b03949093859391908416907f8be0079c531659141344cd1fd0a4f28419497f9722a3daafe3b4186f6b6457e09080a316948515620001cf57508116918215620001985716928315620001615760805281600154161760015560025416176002555161240490816200024a82396080518181816103e40152818161073901528181610a3d01528181610db9015281816113c50152818161165c0152818161172e0152611af90152f35b845162461bcd60e51b815260206004820152601060248201526f24b73b30b634b2103b32b934b334b2b960811b6044820152606490fd5b855162461bcd60e51b815260206004820152601060248201526f496e76616c696420747265617375727960801b6044820152606490fd5b62461bcd60e51b815260206004820152600d60248201526c24b73b30b634b2103a37b5b2b760991b6044820152606490fd5b8351631e4fbdf760e01b815260006004820152602490fd5b600080fd5b634e487b7160e01b600052604160045260246000fd5b51906001600160a01b0382168203620002195756fe6080604052600436101561001257600080fd5b60003560e01c80630b78ca8714611e8757806315f3598b14611dbe57806316c53ced14611c6d578063226c320e14611a385780632a43bbdb146116b45780632b7ac3f31461168b5780633013ce291461164657806349a39d55146116285780635437988d146115a8578063598f1d35146112f657806361d027b3146112cd57806369c1fc25146112545780636e3e0d811461107e5780636f0e530f14611060578063715018a6146110075780637be24cb814610fdb57806385c6ccca14610c235780638da5cb5b14610bfa578063a1d43c5e14610894578063a61eda781461084c578063d31e9f4014610684578063de36071514610637578063e6fa02091461023d578063f0f44260146101bd5763f2fde38b1461012f57600080fd5b346101b85760203660031901126101b8576101486121aa565b61015061221e565b6001600160a01b0390811690811561019f57600054826001600160601b0360a01b821617600055167f8be0079c531659141344cd1fd0a4f28419497f9722a3daafe3b4186f6b6457e0600080a3005b604051631e4fbdf760e01b815260006004820152602490fd5b600080fd5b346101b85760203660031901126101b8576101d66121aa565b6101de61221e565b6001600160a01b03168015610205576001600160601b0360a01b6001541617600155600080f35b60405162461bcd60e51b815260206004820152601060248201526f496e76616c696420747265617375727960801b6044820152606490fd5b346101b85761024b366121d6565b6102536122ef565b81600052600460205260406000209060018060a01b0360018301541633148015610623575b61028190612373565b60ff60098301541660078110156105d8576002036105ee578260005260056020526102b26040600020548210612337565b8260005260056020526102c98160406000206121ec565b5091600383019182549260ff841660068110156105d85760010361059357600360ff1994909416841790556001840180546009840180546001600160a81b031916610100600160a81b0360089390931b92909216919091179094179093559154604080519384524260208501526001600160a01b0390911692839186917f3d210d5ae36955ded2bdf69bd956eb075b7fd07362288c7df1797cd8eb1199bf9190a3600084815260076020908152604080832094835293815292812080549190556001840154600683015491936103de9290916001600160a01b0316906103b09086906122e2565b60405163a9059cbb60e01b81526001600160a01b039092166004830152602482015291829081906044820190565b038160007f00000000000000000000000000000000000000000000000000000000000000006001600160a01b03165af1938415610587576006867f718cfa484a0dc3bc2f94d0e51d084fb57130ee5d28d8cdbc100d680eb0f0c23e604080976002967fb7313ed5bb1b8688b69130db89568681373fcd6a516ce60891a688f4e38775b49a610558575b50600460ff1960098a01541617600989015542600b890155600186015497847f85beda9bf1ef844bb2472cc053c13557032d6e187a546b4c640e86dcd8201e398460018060a01b038c1698899401548151908152426020820152a38151908152426020820152a3857fd938e7eb4ff991494e6b57b612ca1bcdbc8fc10c4895cbd77a45ff68d1b6fc2d85805160018152426020820152a2015482519060208201928684526001600160601b03199060601b16848301526054820152426074820152607481526105358161224a565b5190208151908152426020820152a260016000805160206123af83398151915255005b6105799060203d602011610580575b6105718183612283565b8101906122a5565b508b610467565b503d610567565b6040513d6000823e3d90fd5b60405162461bcd60e51b815260206004820152601d60248201527f5375626d697373696f6e206e6f742076657269666965642076616c69640000006044820152606490fd5b634e487b7160e01b600052602160045260246000fd5b60405162461bcd60e51b815260206004820152600d60248201526c4e6f7420696e2072657669657760981b6044820152606490fd5b506000546001600160a01b03163314610278565b346101b85760403660031901126101b8576106506121c0565b600435600052600660205260406000209060018060a01b0316600052602052602060ff604060002054166040519015158152f35b346101b8576020806003193601126101b857600435906106a26122ef565b6000828152600482526040902060018101546001600160a01b03908116916106cb338414612373565b60098101805460ff811660078110156105d8576001036108075786600052600586526040600020546107c25760ff191660051790556006015460405163a9059cbb60e01b81526001600160a01b039093166004840152602483015290919081908390816000816044810103927f0000000000000000000000000000000000000000000000000000000000000000165af1918215610587577ff34387a51b0dc9f38b1df7cb94f6dbf623997d30b5e28cbbf2f2d301cd169bde926107a5575b50604051428152a260016000805160206123af83398151915255005b6107bb90823d8411610580576105718183612283565b5083610789565b60405162461bcd60e51b815260048101879052601e60248201527f43616e6e6f742063616e63656c2077697468207375626d697373696f6e7300006044820152606490fd5b60405162461bcd60e51b815260048101879052601a60248201527f43616e206f6e6c792063616e63656c204f70656e2068756e74730000000000006044820152606490fd5b346101b85760403660031901126101b8576108656121c0565b600435600052600760205260406000209060018060a01b03166000526020526020604060002054604051908152f35b346101b85760803660031901126101b85760043560248035604435918215908115938481036101b8576108c56122ef565b6002546001600160a01b039290831633148015610bed575b15610ba957866000526020936004855260ff600960406000200154166007811015610b9457600203610b5b5787600052600585526109216040600020548710612337565b87600052600585526109378660406000206121ec565b5092600384019260ff8454166006811015610b4657610b10575015610b065761096260015b8361231f565b6109c7575b50917f7802949e83b15488251446a4f26ec8afa2c32235801e87b374a9690950fad0109491600160a095940154169060405193845283015260408201526064356060820152426080820152a260016000805160206123af83398151915255005b600087815260078086526040808320600186810180548916808752928a52838620548d8752948a52838620928652918952828520949094559254905163a9059cbb60e01b81529086166001600160a01b0316600482015260248101829052929792969592949293908488806044810103816000887f0000000000000000000000000000000000000000000000000000000000000000165af1928315610587577f4f559a11c1d891db8f1991bb524eda4e220876aa052c73d6c26e065cc431bb156060868d937f7802949e83b15488251446a4f26ec8afa2c32235801e87b374a9690950fad0109d60a09d600199610ae9575b50600560ff198254161790555416938787541660405191825289820152426040820152a392949550509194610967565b610aff908c8d3d10610580576105718183612283565b5038610ab9565b610962600261095c565b8660106064926040519262461bcd60e51b845260048401528201526f105b1c9958591e481d995c9a599a595960821b6044820152fd5b50634e487b7160e01b60009081526021600452fd5b60405162461bcd60e51b8152600481018690526012818401527148756e74206e6f7420696e2072657669657760701b6044820152606490fd5b82634e487b7160e01b60005260216004526000fd5b60649060176040519162461bcd60e51b8352602060048401528201527f4e6f7420617574686f72697a65642076657269666965720000000000000000006044820152fd5b50826000541633146108dd565b346101b85760003660031901126101b8576000546040516001600160a01b039091168152602090f35b346101b8576020806003193601126101b857600435610c406122ef565b806000526004825260096040600020019081549260ff93848116946007861015806105d8576004871480159788610fcc575b828215610fbb575b505015610f815784600052600784526040600020336000528452604060002054968715610f46576001600160a01b039360081c8416331480159290610f38575b505015610efd5760009060005b85600052600580865260406000208054831015610ef05782610ce8916121ec565b5060019081015486163314610d07575050610d02906122bd565b610cc7565b809291959697989394509488600052808852610d278260406000206121ec565b5092856003809501541660068110156105d85703610eb35790610d549189600052885260406000206121ec565b5001805460ff191660041790555b8215610e9b575b8215610e84575b505015610e4957600083815260078352604080822033808452908552818320839055905163a9059cbb60e01b8152600481019190915260248101869052918391839160449183917f0000000000000000000000000000000000000000000000000000000000000000165af1801561058757610e2c575b5060405192835242908301527f718cfa484a0dc3bc2f94d0e51d084fb57130ee5d28d8cdbc100d680eb0f0c23e60403393a360016000805160206123af83398151915255005b610e4290823d8411610580576105718183612283565b5083610de6565b60405162461bcd60e51b81526004810183905260136024820152722737903b30b634b21039bab136b4b9b9b4b7b760691b6044820152606490fd5b5416905060078110156105d8576005148580610d70565b91508082541660078110156105d85760061491610d69565b60405162461bcd60e51b81526004810189905260156024820152745374616b65206e6f74207265636c61696d61626c6560581b6044820152606490fd5b5050509091929394610d62565b60405162461bcd60e51b815260048101849052601360248201527215da5b9b995c88185b1c9958591e481c185a59606a1b6044820152606490fd5b9091506105d8578780610cba565b60405162461bcd60e51b81526004810186905260136024820152724e6f207374616b6520746f207265636c61696d60681b6044820152606490fd5b60405162461bcd60e51b8152600481018590526012602482015271121d5b9d081b9bdd08199a5b985b1a5e995960721b6044820152606490fd5b9091506105d8576005148882610c7a565b60009250600681149150610c72565b346101b85760203660031901126101b85760043560005260056020526020604060002054604051908152f35b346101b85760003660031901126101b85761102061221e565b600080546001600160a01b0319811682556001600160a01b03167f8be0079c531659141344cd1fd0a4f28419497f9722a3daafe3b4186f6b6457e08280a3005b346101b85760003660031901126101b857602060405162278d008152f35b346101b85760203660031901126101b85760006101806040516110a081612266565b8281528260208201528260408201528260608201528260808201528260a08201528260c08201528260e08201528261010082015282610120820152826101408201528261016082015201526004356000526004602052604060002060405161110781612266565b8154815260018201546001600160a01b03166020820152600282015460408201526003820154606082015260048201546080820152600582015460ff90811660a0830152600683015460c083015260078084015460e08401526008840154610100840152600984015491821610156105d8576101a0928160ff600b931661012085015260018060a01b039060081c16610140840152600a8101546101608401520154610180820152610180604051918051835260018060a01b03602082015116602084015260408101516040840152606081015160608401526080810151608084015260ff60a08201511660a084015260c081015160c084015260e081015160e084015261010081015161010084015261122b610120820151610120850190612190565b610140818101516001600160a01b03169084015261016080820151908401520151610180820152f35b346101b857611262366121d6565b906000526005602052604060002080548210156101b85760a091611285916121ec565b508054906112c6600180851b03600183015416916002810154600460ff6003840154169201549360405195865260208601526040850152606084019061219d565b6080820152f35b346101b85760003660031901126101b8576001546040516001600160a01b039091168152602090f35b346101b8576020806003193601126101b8576004356113136122ef565b8060005260048252604060002060ff60098201541660078110156105d8576001811490811561159d575b501561155857600881015442101561151c578160005260068352604060002033600052835260ff604060002054166114e65760018101546001600160a01b039190821633148015906114d9575b156114945760070180546040516323b872dd60e01b8152336004820152306024820152604481019190915290918490829060649082906000907f0000000000000000000000000000000000000000000000000000000000000000165af1801561058757611477575b50816000526006835260406000203360005283526040600020600160ff198254161790555491816000526007815260406000203360005281528260406000205560405192835242908301527f9563e46b88a5c4e59594ea4a9a8ebea33dde7aa80361956538754bf08c14b86660403393a360016000805160206123af83398151915255005b61148d90843d8611610580576105718183612283565b50836113f2565b60405162461bcd60e51b815260048101859052601760248201527f43726561746f722063616e6e6f74206265206167656e740000000000000000006044820152606490fd5b508160005416331461138a565b60405162461bcd60e51b815260048101849052600e60248201526d105b1c9958591e481cdd185ad95960921b6044820152606490fd5b60405162461bcd60e51b8152600481018490526014602482015273121d5b9d08191958591b1a5b99481c185cdcd95960621b6044820152606490fd5b60405162461bcd60e51b815260048101849052601960248201527f48756e74206e6f7420616363657074696e67206167656e7473000000000000006044820152606490fd5b60029150148461133d565b346101b85760203660031901126101b8576115c16121aa565b6115c961221e565b6001600160a01b031680156115f0576001600160601b0360a01b6002541617600255600080f35b60405162461bcd60e51b815260206004820152601060248201526f24b73b30b634b2103b32b934b334b2b960811b6044820152606490fd5b346101b85760003660031901126101b8576020600354604051908152f35b346101b85760003660031901126101b8576040517f00000000000000000000000000000000000000000000000000000000000000006001600160a01b03168152602090f35b346101b85760003660031901126101b8576002546040516001600160a01b039091168152602090f35b346101b85760e03660031901126101b85760643560ff811681036101b85760c4356116dd6122ef565b608435156119fe5760a435156119c557801515806119b8575b15611980576040516323b872dd60e01b8152336004820152306024820152608435604482015260208160648160006001600160a01b037f0000000000000000000000000000000000000000000000000000000000000000165af1801561058757611961575b5061177561176a6003546122bd565b9182600355426122e2565b60ff6040519361178485612266565b8385523360208601526004356040860152602435606086015260443560808601521660a084015260843560c084015260a43560e084015280610100840152600161012084015260006101408401524261016084015260006101808401528160005260046020526040600020835181556001810160018060a01b036020860151166001600160601b0360a01b825416179055604084015160028201556060840151600382015560808401516004820155600581019360ff60a0820151169460ff19958682541617905560c0810151600683015560e08101516007830155610100810151600883015560098201906101208101519060078210156105d8578254610140820151610100600160a81b0360089190911b1660ff939093169716610100600160a81b03191696909617179055602093600b9061018090610160810151600a85015501519101556040519060043582526084358483015260a43560408301526060820152426080820152817f256a293214d30a280ece861ac9a70180923efbb2e153a6e68335d4b98fccfc6160a03393a3807feff7e14856280e323de2a53492f9175d76d2af7b061aa0bdd9d3d657216e603e6040805160843581524286820152a260016000805160206123af83398151915255604051908152f35b6119799060203d602011610580576105718183612283565b508261175b565b60405162461bcd60e51b815260206004820152601060248201526f496e76616c696420646561646c696e6560801b6044820152606490fd5b5062278d008111156116f6565b60405162461bcd60e51b815260206004820152601160248201527005374616b65206d757374206265203e203607c1b6044820152606490fd5b60405162461bcd60e51b81526020600482015260126024820152710526577617264206d757374206265203e20360741b6044820152606490fd5b346101b8576020806003193601126101b85760043590611a566122ef565b816000526004815260406000209160088301544210611c3657600983019182549360ff948581169560078710156105d857600196878114908115611c2b575b5015611bed57866000916000915b611b94575b5050611b815750835460ff191660069081179094558481015493015460405163a9059cbb60e01b81526001600160a01b039485166004820152602481019190915291928190839060449082906000907f0000000000000000000000000000000000000000000000000000000000000000165af1918215610587577fddc50c08c228e1f2a59bfa4edac08f53539b5dbf62af4433cc40b9498db8cf4992611b64575b50604051428152a25b6000805160206123af83398151915255005b611b7a90823d8411610580576105718183612283565b5084611b49565b60ff191660021790935550611b52915050565b866000526005865260406000208054831015611be7576003611bb78484936121ec565b500154169160068310156105d85789809314611bdc57611bd6906122bd565b91611aa3565b505090508780611aa8565b50611aa8565b60405162461bcd60e51b8152600481018590526016602482015275121d5b9d08185b1c9958591e48199a5b985b1a5e995960521b6044820152606490fd5b600291501488611a95565b60405162461bcd60e51b815260048101839052600f60248201526e139bdd081e595d08195e1c1a5c9959608a1b6044820152606490fd5b346101b8576020806003193601126101b85760043560005260059081815260406000209182549067ffffffffffffffff8211611da85760405191611cb58482841b0184612283565b80835283830191829560005284600020926000905b838210611d4857604080518881528751818a018190528a928201908a60005b828110611cf65784840385f35b9091928260a06001928851805182528480841b0384820151168483015260408101516040830152611d2f6060808301519084019061219d565b6080809101519082015201960191019492919094611ce9565b604051611d548161224a565b8554815260018601546001600160a01b03168882015260028601546040820152600386015460ff1660068110156105d857606082015260048601546080820152815293820193600191909101908601611cca565b634e487b7160e01b600052604160045260246000fd5b346101b85760203660031901126101b85760043560005260046020526101a0604060002080549060018060a01b0390816001820154169160028201546003830154600484015460ff600586015416600686015490600787015492600888015494600989015496600b600a8b01549a01549a6040519c8d5260208d015260408c015260608b015260808a015260a089015260c088015260e0870152610100860152611e6f610120860160ff8316612190565b60081c16610140840152610160830152610180820152f35b346101b85760403660031901126101b857600435602490813591611ea96122ef565b816000526020600481526040600020600981019060ff825416600781101561217b5760018114908115612170575b501561212c57600801544210156120f7578360005260068252604060002033600052825260ff60406000205416156120c157841561208857836000526005825260406000209283549360405190611f2d8261224a565b868252848201338152604083018981526060840191600083526080850193428552680100000000000000008a10156120735789611f6f916001820181556121ec565b95909561205e57518555516001850180546001600160a01b0319166001600160a01b03929092169190911790555160028401555160068110156120495790611fbc6004926003850161231f565b5191015581549060ff82169060078210156120355750600114612025575b50506040519384528301524260408301527f27471f0dd3cbe22d6474031b36fa4c487514f2ebdf7c2c161dfa20135738459260603393a360016000805160206123af83398151915255005b60ff191660021790558480611fda565b634e487b7160e01b60009081526021600452fd5b83634e487b7160e01b60005260216004526000fd5b86634e487b7160e01b60005260006004526000fd5b86634e487b7160e01b60005260416004526000fd5b5060136064926040519262461bcd60e51b8452600484015282015272092dcecc2d8d2c840e4cae0dee4e840d0c2e6d606b1b6044820152fd5b5060106064926040519262461bcd60e51b845260048401528201526f135d5cdd081cdd185ad948199a5c9cdd60821b6044820152fd5b50600f6064926040519262461bcd60e51b845260048401528201526e111958591b1a5b99481c185cdcd959608a1b6044820152fd5b60405162461bcd60e51b815260048101849052601e818601527f48756e74206e6f7420616363657074696e67207375626d697373696f6e7300006044820152606490fd5b600291501487611ed7565b84634e487b7160e01b60005260216004526000fd5b9060078210156105d85752565b9060068210156105d85752565b600435906001600160a01b03821682036101b857565b602435906001600160a01b03821682036101b857565b60409060031901126101b8576004359060243590565b8054821015612208576000526005602060002091020190600090565b634e487b7160e01b600052603260045260246000fd5b6000546001600160a01b0316330361223257565b60405163118cdaa760e01b8152336004820152602490fd5b60a0810190811067ffffffffffffffff821117611da857604052565b6101a0810190811067ffffffffffffffff821117611da857604052565b90601f8019910116810190811067ffffffffffffffff821117611da857604052565b908160209103126101b8575180151581036101b85790565b60001981146122cc5760010190565b634e487b7160e01b600052601160045260246000fd5b919082018092116122cc57565b6000805160206123af833981519152600281541461230d5760029055565b604051633ee5aeb560e01b8152600490fd5b9060068110156105d85760ff80198354169116179055565b1561233e57565b60405162461bcd60e51b815260206004820152600d60248201526c092dcecc2d8d2c840d2dcc8caf609b1b6044820152606490fd5b1561237a57565b60405162461bcd60e51b815260206004820152600c60248201526b27b7363c9031b932b0ba37b960a11b6044820152606490fdfe9b779b17422d0df92223018b32b4d1fa46e071723d6817e2486d003becc55f00a264697066735822122022d1d8ae6ea82d6e1bdddb8842576276691b6e33156e07f53a2f1e360d557bf964736f6c63430008140033",
  "linkReferences": {},
  "deployedLinkReferences": {}
}